:100000000C942A000C943F000C943F000C943F0089
:100010000C943F000C943F000C943F000C943F0064
:100020000C943F000C943F000C943F000C943F0054
:100030000C943F000C943F000C943F000C943F0044
:100040000C943F000C943F000C943F000C943F0034
:100050000C943F0011241FBECFE5D8E0DEBFCDBF1A
:1000600010E0A0E6B0E0E4EBF1E002C005900D92F4
:10007000A037B107D9F70E949F000C94D8000C94C8
:1000800000008F9A969A979A84E0982F9A95F1F7A4
:1000900097988A95F1F708958F9A969A979884E0A1
:1000A000982F9A95F1F7979A8A95F1F70895969A6D
:1000B0008F9884E0982F9A95F1F79698982F9A95B3
:1000C000F1F78F9A8A95F1F708958F9A94E09A95AF
:1000D000F1F7969820E034E087FF02C0979A01C0BC
:1000E00097989698932F9A95F1F7969A932F9A95B9
:1000F000F1F79698932F9A95F1F72F5F283011F02A
:10010000880FEACF08950F931F93182F062F0E9490
:100110004100812F0E9465000E945700802F0E949D
:1001200065000E9457000E944C001F910F91089596
:1001300081B3806C81BB82B3806C82BB0895CF9207
:10014000DF92EF92FF920F931F93CF93DF9381B3D0
:10015000806C81BB82B3806C82BB88E461E30E94C7
:10016000830000E08CE2C82E81E0D82E1BC0FE0187
:10017000EE0DFF1DEF70F070E05AFF4F6081606878
:10018000812F0E94830021961E5F103781F788E837
:1001900093E1F6013197F1F70197D9F70F5F00313D
:1001A00008F000E0C0E0D0E018E6E02EFF24DFCF4A
:0401B000F894FFCFF1
:1001B4003F065B4F666D7D077F6F777C395E797193
:00000001FF
